
UART_TIMER1_atmega328p.elf:     file format elf32-avr

Sections:
Idx Name          Size      VMA       LMA       File off  Algn
  0 .data         000000b0  00800100  000004ac  00000540  2**0
                  CONTENTS, ALLOC, LOAD, DATA
  1 .text         000004ac  00000000  00000000  00000094  2**1
                  CONTENTS, ALLOC, LOAD, READONLY, CODE
  2 .bss          00000205  008001b0  008001b0  000005f0  2**0
                  ALLOC
  3 .comment      00000030  00000000  00000000  000005f0  2**0
                  CONTENTS, READONLY
  4 .note.gnu.avr.deviceinfo 00000040  00000000  00000000  00000620  2**2
                  CONTENTS, READONLY
  5 .debug_aranges 00000130  00000000  00000000  00000660  2**0
                  CONTENTS, READONLY, DEBUGGING
  6 .debug_info   00000a32  00000000  00000000  00000790  2**0
                  CONTENTS, READONLY, DEBUGGING
  7 .debug_abbrev 0000049b  00000000  00000000  000011c2  2**0
                  CONTENTS, READONLY, DEBUGGING
  8 .debug_line   0000073a  00000000  00000000  0000165d  2**0
                  CONTENTS, READONLY, DEBUGGING
  9 .debug_frame  00000308  00000000  00000000  00001d98  2**2
                  CONTENTS, READONLY, DEBUGGING
 10 .debug_str    0000041c  00000000  00000000  000020a0  2**0
                  CONTENTS, READONLY, DEBUGGING
 11 .debug_loc    000006cb  00000000  00000000  000024bc  2**0
                  CONTENTS, READONLY, DEBUGGING
 12 .debug_ranges 00000120  00000000  00000000  00002b87  2**0
                  CONTENTS, READONLY, DEBUGGING

Disassembly of section .text:

00000000 <__vectors>:
   0:	0c 94 34 00 	jmp	0x68	; 0x68 <__ctors_end>
   4:	0c 94 51 00 	jmp	0xa2	; 0xa2 <__bad_interrupt>
   8:	0c 94 51 00 	jmp	0xa2	; 0xa2 <__bad_interrupt>
   c:	0c 94 51 00 	jmp	0xa2	; 0xa2 <__bad_interrupt>
  10:	0c 94 51 00 	jmp	0xa2	; 0xa2 <__bad_interrupt>
  14:	0c 94 51 00 	jmp	0xa2	; 0xa2 <__bad_interrupt>
  18:	0c 94 51 00 	jmp	0xa2	; 0xa2 <__bad_interrupt>
  1c:	0c 94 51 00 	jmp	0xa2	; 0xa2 <__bad_interrupt>
  20:	0c 94 51 00 	jmp	0xa2	; 0xa2 <__bad_interrupt>
  24:	0c 94 51 00 	jmp	0xa2	; 0xa2 <__bad_interrupt>
  28:	0c 94 51 00 	jmp	0xa2	; 0xa2 <__bad_interrupt>
  2c:	0c 94 51 00 	jmp	0xa2	; 0xa2 <__bad_interrupt>
  30:	0c 94 51 00 	jmp	0xa2	; 0xa2 <__bad_interrupt>
  34:	0c 94 51 00 	jmp	0xa2	; 0xa2 <__bad_interrupt>
  38:	0c 94 51 00 	jmp	0xa2	; 0xa2 <__bad_interrupt>
  3c:	0c 94 51 00 	jmp	0xa2	; 0xa2 <__bad_interrupt>
  40:	0c 94 51 00 	jmp	0xa2	; 0xa2 <__bad_interrupt>
  44:	0c 94 51 00 	jmp	0xa2	; 0xa2 <__bad_interrupt>
  48:	0c 94 84 01 	jmp	0x308	; 0x308 <__vector_18>
  4c:	0c 94 c8 01 	jmp	0x390	; 0x390 <__vector_19>
  50:	0c 94 51 00 	jmp	0xa2	; 0xa2 <__bad_interrupt>
  54:	0c 94 51 00 	jmp	0xa2	; 0xa2 <__bad_interrupt>
  58:	0c 94 51 00 	jmp	0xa2	; 0xa2 <__bad_interrupt>
  5c:	0c 94 51 00 	jmp	0xa2	; 0xa2 <__bad_interrupt>
  60:	0c 94 51 00 	jmp	0xa2	; 0xa2 <__bad_interrupt>
  64:	0c 94 51 00 	jmp	0xa2	; 0xa2 <__bad_interrupt>

00000068 <__ctors_end>:
  68:	11 24       	eor	r1, r1
  6a:	1f be       	out	0x3f, r1	; 63
  6c:	cf ef       	ldi	r28, 0xFF	; 255
  6e:	d8 e0       	ldi	r29, 0x08	; 8
  70:	de bf       	out	0x3e, r29	; 62
  72:	cd bf       	out	0x3d, r28	; 61

00000074 <__do_copy_data>:
  74:	11 e0       	ldi	r17, 0x01	; 1
  76:	a0 e0       	ldi	r26, 0x00	; 0
  78:	b1 e0       	ldi	r27, 0x01	; 1
  7a:	ec ea       	ldi	r30, 0xAC	; 172
  7c:	f4 e0       	ldi	r31, 0x04	; 4
  7e:	02 c0       	rjmp	.+4      	; 0x84 <__do_copy_data+0x10>
  80:	05 90       	lpm	r0, Z+
  82:	0d 92       	st	X+, r0
  84:	a0 3b       	cpi	r26, 0xB0	; 176
  86:	b1 07       	cpc	r27, r17
  88:	d9 f7       	brne	.-10     	; 0x80 <__do_copy_data+0xc>

0000008a <__do_clear_bss>:
  8a:	23 e0       	ldi	r18, 0x03	; 3
  8c:	a0 eb       	ldi	r26, 0xB0	; 176
  8e:	b1 e0       	ldi	r27, 0x01	; 1
  90:	01 c0       	rjmp	.+2      	; 0x94 <.do_clear_bss_start>

00000092 <.do_clear_bss_loop>:
  92:	1d 92       	st	X+, r1

00000094 <.do_clear_bss_start>:
  94:	a5 3b       	cpi	r26, 0xB5	; 181
  96:	b2 07       	cpc	r27, r18
  98:	e1 f7       	brne	.-8      	; 0x92 <.do_clear_bss_loop>
  9a:	0e 94 53 00 	call	0xa6	; 0xa6 <main>
  9e:	0c 94 54 02 	jmp	0x4a8	; 0x4a8 <_exit>

000000a2 <__bad_interrupt>:
  a2:	0c 94 00 00 	jmp	0	; 0x0 <__vectors>

000000a6 <main>:
char noValido[] = "Comando no valido \r";
char inicio[] = "Generador de señales digitales programable \r Ingrese frecuencia entre 100 y 10000Hz \r ON: para encender, OFF para apagar, RST para reiniciar \r";

int main(void)
{
    init_Uart();
  a6:	0e 94 e6 00 	call	0x1cc	; 0x1cc <init_Uart>
	imprimirMensaje(inicio);
  aa:	80 e0       	ldi	r24, 0x00	; 0
  ac:	91 e0       	ldi	r25, 0x01	; 1
  ae:	0e 94 61 01 	call	0x2c2	; 0x2c2 <imprimirMensaje>
	sei();
  b2:	78 94       	sei
    while (1) 
    {
		if (ingresoString()){
  b4:	0e 94 f0 00 	call	0x1e0	; 0x1e0 <ingresoString>
  b8:	88 23       	and	r24, r24
  ba:	e1 f3       	breq	.-8      	; 0xb4 <main+0xe>
			comprobante = verificarDato();
  bc:	0e 94 23 01 	call	0x246	; 0x246 <verificarDato>
  c0:	90 93 b4 03 	sts	0x03B4, r25	; 0x8003b4 <comprobante+0x1>
  c4:	80 93 b3 03 	sts	0x03B3, r24	; 0x8003b3 <comprobante>
			switch(comprobante){
  c8:	81 30       	cpi	r24, 0x01	; 1
  ca:	91 05       	cpc	r25, r1
  cc:	69 f0       	breq	.+26     	; 0xe8 <main+0x42>
  ce:	38 f0       	brcs	.+14     	; 0xde <main+0x38>
  d0:	82 30       	cpi	r24, 0x02	; 2
  d2:	91 05       	cpc	r25, r1
  d4:	81 f0       	breq	.+32     	; 0xf6 <main+0x50>
  d6:	83 30       	cpi	r24, 0x03	; 3
  d8:	91 05       	cpc	r25, r1
  da:	81 f0       	breq	.+32     	; 0xfc <main+0x56>
  dc:	12 c0       	rjmp	.+36     	; 0x102 <main+0x5c>
				case(ERROR):
					imprimirMensaje(noValido);
  de:	8f e8       	ldi	r24, 0x8F	; 143
  e0:	91 e0       	ldi	r25, 0x01	; 1
  e2:	0e 94 61 01 	call	0x2c2	; 0x2c2 <imprimirMensaje>
				break;
  e6:	e6 cf       	rjmp	.-52     	; 0xb4 <main+0xe>
				case(RST):
					imprimirMensaje(inicio);
  e8:	80 e0       	ldi	r24, 0x00	; 0
  ea:	91 e0       	ldi	r25, 0x01	; 1
  ec:	0e 94 61 01 	call	0x2c2	; 0x2c2 <imprimirMensaje>
					resetTimer1();
  f0:	0e 94 c7 00 	call	0x18e	; 0x18e <resetTimer1>
				break;
  f4:	df cf       	rjmp	.-66     	; 0xb4 <main+0xe>
				case(ON):
					onTimer1();
  f6:	0e 94 b5 00 	call	0x16a	; 0x16a <onTimer1>
				break;
  fa:	dc cf       	rjmp	.-72     	; 0xb4 <main+0xe>
				case(OFF):
					offTimer1();
  fc:	0e 94 c5 00 	call	0x18a	; 0x18a <offTimer1>
				break;
 100:	d9 cf       	rjmp	.-78     	; 0xb4 <main+0xe>
				default:
					setFrecuencia(comprobante);
 102:	0e 94 d2 00 	call	0x1a4	; 0x1a4 <setFrecuencia>
				break;
 106:	d6 cf       	rjmp	.-84     	; 0xb4 <main+0xe>

00000108 <SerialPort_Init>:

// Espera hasta que el buffer de TX este libre.
void SerialPort_Wait_For_TX_Buffer_Free(void){
	// Pooling - Bloqueante hasta que termine de transmitir.
	while(!(UCSR0A & (1<<UDRE0)));
}
 108:	10 92 c1 00 	sts	0x00C1, r1	; 0x8000c1 <__TEXT_REGION_LENGTH__+0x7e00c1>
 10c:	96 e0       	ldi	r25, 0x06	; 6
 10e:	90 93 c2 00 	sts	0x00C2, r25	; 0x8000c2 <__TEXT_REGION_LENGTH__+0x7e00c2>
 112:	10 92 c5 00 	sts	0x00C5, r1	; 0x8000c5 <__TEXT_REGION_LENGTH__+0x7e00c5>
 116:	80 93 c4 00 	sts	0x00C4, r24	; 0x8000c4 <__TEXT_REGION_LENGTH__+0x7e00c4>
 11a:	08 95       	ret

0000011c <SerialPort_TX_Enable>:
 11c:	e1 ec       	ldi	r30, 0xC1	; 193
 11e:	f0 e0       	ldi	r31, 0x00	; 0
 120:	80 81       	ld	r24, Z
 122:	88 60       	ori	r24, 0x08	; 8
 124:	80 83       	st	Z, r24
 126:	08 95       	ret

00000128 <SerialPort_TX_Interrupt_Enable>:
 128:	e1 ec       	ldi	r30, 0xC1	; 193
 12a:	f0 e0       	ldi	r31, 0x00	; 0
 12c:	80 81       	ld	r24, Z
 12e:	80 62       	ori	r24, 0x20	; 32
 130:	80 83       	st	Z, r24
 132:	08 95       	ret

00000134 <SerialPort_TX_Interrupt_Disable>:
 134:	e1 ec       	ldi	r30, 0xC1	; 193
 136:	f0 e0       	ldi	r31, 0x00	; 0
 138:	80 81       	ld	r24, Z
 13a:	8f 7d       	andi	r24, 0xDF	; 223
 13c:	80 83       	st	Z, r24
 13e:	08 95       	ret

00000140 <SerialPort_RX_Enable>:
 140:	e1 ec       	ldi	r30, 0xC1	; 193
 142:	f0 e0       	ldi	r31, 0x00	; 0
 144:	80 81       	ld	r24, Z
 146:	80 61       	ori	r24, 0x10	; 16
 148:	80 83       	st	Z, r24
 14a:	08 95       	ret

0000014c <SerialPort_RX_Interrupt_Enable>:
 14c:	e1 ec       	ldi	r30, 0xC1	; 193
 14e:	f0 e0       	ldi	r31, 0x00	; 0
 150:	80 81       	ld	r24, Z
 152:	80 68       	ori	r24, 0x80	; 128
 154:	80 83       	st	Z, r24
 156:	08 95       	ret

00000158 <SerialPort_RX_Interrupt_Disable>:
 158:	e1 ec       	ldi	r30, 0xC1	; 193
 15a:	f0 e0       	ldi	r31, 0x00	; 0
 15c:	80 81       	ld	r24, Z
 15e:	8f 77       	andi	r24, 0x7F	; 127
 160:	80 83       	st	Z, r24
 162:	08 95       	ret

00000164 <SerialPort_Send_Data>:

void SerialPort_Send_Data(char data){
	UDR0 = data;
 164:	80 93 c6 00 	sts	0x00C6, r24	; 0x8000c6 <__TEXT_REGION_LENGTH__+0x7e00c6>
 168:	08 95       	ret

0000016a <onTimer1>:
#include "timer1.h"

static uint16_t contador = (1000000UL/100) -1;

void onTimer1(){
	DDRB |= (1<<PB1);						//PB1 Salida
 16a:	21 9a       	sbi	0x04, 1	; 4
	TCCR1A=  (1<< COM1A0);					//COM1A  = Toggle
 16c:	80 e4       	ldi	r24, 0x40	; 64
 16e:	80 93 80 00 	sts	0x0080, r24	; 0x800080 <__TEXT_REGION_LENGTH__+0x7e0080>
	TCCR1B=(1<<WGM12) |  (1<<CS11);		//CTC 8 prescalar
 172:	8a e0       	ldi	r24, 0x0A	; 10
 174:	80 93 81 00 	sts	0x0081, r24	; 0x800081 <__TEXT_REGION_LENGTH__+0x7e0081>
	OCR1A = contador;			//pongo la frecuencia
 178:	80 91 a3 01 	lds	r24, 0x01A3	; 0x8001a3 <contador>
 17c:	90 91 a4 01 	lds	r25, 0x01A4	; 0x8001a4 <contador+0x1>
 180:	90 93 89 00 	sts	0x0089, r25	; 0x800089 <__TEXT_REGION_LENGTH__+0x7e0089>
 184:	80 93 88 00 	sts	0x0088, r24	; 0x800088 <__TEXT_REGION_LENGTH__+0x7e0088>
 188:	08 95       	ret

0000018a <offTimer1>:
} 

void offTimer1(){
	DDRB &=~ (1<<PB1);
 18a:	21 98       	cbi	0x04, 1	; 4
 18c:	08 95       	ret

0000018e <resetTimer1>:
}

void resetTimer1(){
	contador = (1000000UL/100) -1;
 18e:	8f e0       	ldi	r24, 0x0F	; 15
 190:	97 e2       	ldi	r25, 0x27	; 39
 192:	90 93 a4 01 	sts	0x01A4, r25	; 0x8001a4 <contador+0x1>
 196:	80 93 a3 01 	sts	0x01A3, r24	; 0x8001a3 <contador>
	OCR1A = contador;			//pongo la frecuencia
 19a:	90 93 89 00 	sts	0x0089, r25	; 0x800089 <__TEXT_REGION_LENGTH__+0x7e0089>
 19e:	80 93 88 00 	sts	0x0088, r24	; 0x800088 <__TEXT_REGION_LENGTH__+0x7e0088>
 1a2:	08 95       	ret

000001a4 <setFrecuencia>:
}

void setFrecuencia(uint16_t f){
		contador = (1000000UL/f) -1;			
 1a4:	9c 01       	movw	r18, r24
 1a6:	40 e0       	ldi	r20, 0x00	; 0
 1a8:	50 e0       	ldi	r21, 0x00	; 0
 1aa:	60 e4       	ldi	r22, 0x40	; 64
 1ac:	72 e4       	ldi	r23, 0x42	; 66
 1ae:	8f e0       	ldi	r24, 0x0F	; 15
 1b0:	90 e0       	ldi	r25, 0x00	; 0
 1b2:	0e 94 03 02 	call	0x406	; 0x406 <__udivmodsi4>
 1b6:	21 50       	subi	r18, 0x01	; 1
 1b8:	31 09       	sbc	r19, r1
 1ba:	30 93 a4 01 	sts	0x01A4, r19	; 0x8001a4 <contador+0x1>
 1be:	20 93 a3 01 	sts	0x01A3, r18	; 0x8001a3 <contador>
		OCR1A = contador;			//pongo la frecuencia
 1c2:	30 93 89 00 	sts	0x0089, r19	; 0x800089 <__TEXT_REGION_LENGTH__+0x7e0089>
 1c6:	20 93 88 00 	sts	0x0088, r18	; 0x800088 <__TEXT_REGION_LENGTH__+0x7e0088>
 1ca:	08 95       	ret

000001cc <init_Uart>:
uint8_t esDigito(char dato);
uint8_t modoCaracter();


void init_Uart(){
	SerialPort_Init(BR9600); 		// Inicializo formato 8N1 y BAUDRATE = 9600bps
 1cc:	87 e6       	ldi	r24, 0x67	; 103
 1ce:	0e 94 84 00 	call	0x108	; 0x108 <SerialPort_Init>
	SerialPort_TX_Enable();			// Activo el Transmisor del Puerto Serie
 1d2:	0e 94 8e 00 	call	0x11c	; 0x11c <SerialPort_TX_Enable>
	SerialPort_RX_Enable();			// Activo el Receptor del Puerto Serie
 1d6:	0e 94 a0 00 	call	0x140	; 0x140 <SerialPort_RX_Enable>
	SerialPort_RX_Interrupt_Enable();	// Activo Interrupción de recepcion.
 1da:	0e 94 a6 00 	call	0x14c	; 0x14c <SerialPort_RX_Interrupt_Enable>
 1de:	08 95       	ret

000001e0 <ingresoString>:
}

uint8_t ingresoString(){
	if(finPalabra){
 1e0:	80 91 b3 01 	lds	r24, 0x01B3	; 0x8001b3 <finPalabra>
 1e4:	88 23       	and	r24, r24
 1e6:	29 f0       	breq	.+10     	; 0x1f2 <ingresoString+0x12>
		SerialPort_RX_Interrupt_Enable();
 1e8:	0e 94 a6 00 	call	0x14c	; 0x14c <SerialPort_RX_Interrupt_Enable>
		finPalabra =0;
 1ec:	10 92 b3 01 	sts	0x01B3, r1	; 0x8001b3 <finPalabra>
		return 1;
 1f0:	81 e0       	ldi	r24, 0x01	; 1
	}
	return 0;
}
 1f2:	08 95       	ret

000001f4 <modoCaracter>:
0 no valido
1 RST
2 ON
3 OFF
*/
uint8_t modoCaracter(){
 1f4:	cf 93       	push	r28
 1f6:	df 93       	push	r29
 1f8:	1f 92       	push	r1
 1fa:	cd b7       	in	r28, 0x3d	; 61
 1fc:	de b7       	in	r29, 0x3e	; 62
	volatile uint8_t pos= 0;
 1fe:	19 82       	std	Y+1, r1	; 0x01
	if (strcmp(buffer,"RST")== 0){
 200:	65 ea       	ldi	r22, 0xA5	; 165
 202:	71 e0       	ldi	r23, 0x01	; 1
 204:	83 eb       	ldi	r24, 0xB3	; 179
 206:	92 e0       	ldi	r25, 0x02	; 2
 208:	0e 94 43 02 	call	0x486	; 0x486 <strcmp>
 20c:	89 2b       	or	r24, r25
 20e:	91 f0       	breq	.+36     	; 0x234 <modoCaracter+0x40>
		return 1;
	}
	else if (strcmp(buffer,"ON") == 0){
 210:	69 ea       	ldi	r22, 0xA9	; 169
 212:	71 e0       	ldi	r23, 0x01	; 1
 214:	83 eb       	ldi	r24, 0xB3	; 179
 216:	92 e0       	ldi	r25, 0x02	; 2
 218:	0e 94 43 02 	call	0x486	; 0x486 <strcmp>
 21c:	89 2b       	or	r24, r25
 21e:	61 f0       	breq	.+24     	; 0x238 <modoCaracter+0x44>
			return 2;
		}
		else if (strcmp(buffer,"OFF") == 0){
 220:	6c ea       	ldi	r22, 0xAC	; 172
 222:	71 e0       	ldi	r23, 0x01	; 1
 224:	83 eb       	ldi	r24, 0xB3	; 179
 226:	92 e0       	ldi	r25, 0x02	; 2
 228:	0e 94 43 02 	call	0x486	; 0x486 <strcmp>
 22c:	89 2b       	or	r24, r25
 22e:	31 f0       	breq	.+12     	; 0x23c <modoCaracter+0x48>
				return 3;
				}
			else
				return 0;
 230:	80 e0       	ldi	r24, 0x00	; 0
 232:	05 c0       	rjmp	.+10     	; 0x23e <modoCaracter+0x4a>
3 OFF
*/
uint8_t modoCaracter(){
	volatile uint8_t pos= 0;
	if (strcmp(buffer,"RST")== 0){
		return 1;
 234:	81 e0       	ldi	r24, 0x01	; 1
 236:	03 c0       	rjmp	.+6      	; 0x23e <modoCaracter+0x4a>
	}
	else if (strcmp(buffer,"ON") == 0){
			return 2;
 238:	82 e0       	ldi	r24, 0x02	; 2
 23a:	01 c0       	rjmp	.+2      	; 0x23e <modoCaracter+0x4a>
		}
		else if (strcmp(buffer,"OFF") == 0){
				return 3;
 23c:	83 e0       	ldi	r24, 0x03	; 3
				}
			else
				return 0;
}
 23e:	0f 90       	pop	r0
 240:	df 91       	pop	r29
 242:	cf 91       	pop	r28
 244:	08 95       	ret

00000246 <verificarDato>:
1 RST
2 ON
3 OFF
entre 100-10000 frecuencia
*/
uint16_t verificarDato(){
 246:	cf 93       	push	r28
 248:	df 93       	push	r29
 24a:	00 d0       	rcall	.+0      	; 0x24c <verificarDato+0x6>
 24c:	00 d0       	rcall	.+0      	; 0x24e <verificarDato+0x8>
 24e:	00 d0       	rcall	.+0      	; 0x250 <verificarDato+0xa>
 250:	cd b7       	in	r28, 0x3d	; 61
 252:	de b7       	in	r29, 0x3e	; 62
	volatile uint16_t res= 0;
 254:	1a 82       	std	Y+2, r1	; 0x02
 256:	19 82       	std	Y+1, r1	; 0x01
	volatile unsigned long aux = atoi(buffer);
 258:	83 eb       	ldi	r24, 0xB3	; 179
 25a:	92 e0       	ldi	r25, 0x02	; 2
 25c:	0e 94 25 02 	call	0x44a	; 0x44a <atoi>
 260:	09 2e       	mov	r0, r25
 262:	00 0c       	add	r0, r0
 264:	aa 0b       	sbc	r26, r26
 266:	bb 0b       	sbc	r27, r27
 268:	8b 83       	std	Y+3, r24	; 0x03
 26a:	9c 83       	std	Y+4, r25	; 0x04
 26c:	ad 83       	std	Y+5, r26	; 0x05
 26e:	be 83       	std	Y+6, r27	; 0x06
	if (aux >=100 && aux <= 10000){
 270:	8b 81       	ldd	r24, Y+3	; 0x03
 272:	9c 81       	ldd	r25, Y+4	; 0x04
 274:	ad 81       	ldd	r26, Y+5	; 0x05
 276:	be 81       	ldd	r27, Y+6	; 0x06
 278:	84 36       	cpi	r24, 0x64	; 100
 27a:	91 05       	cpc	r25, r1
 27c:	a1 05       	cpc	r26, r1
 27e:	b1 05       	cpc	r27, r1
 280:	80 f0       	brcs	.+32     	; 0x2a2 <verificarDato+0x5c>
 282:	8b 81       	ldd	r24, Y+3	; 0x03
 284:	9c 81       	ldd	r25, Y+4	; 0x04
 286:	ad 81       	ldd	r26, Y+5	; 0x05
 288:	be 81       	ldd	r27, Y+6	; 0x06
 28a:	81 31       	cpi	r24, 0x11	; 17
 28c:	97 42       	sbci	r25, 0x27	; 39
 28e:	a1 05       	cpc	r26, r1
 290:	b1 05       	cpc	r27, r1
 292:	38 f4       	brcc	.+14     	; 0x2a2 <verificarDato+0x5c>
		res = aux;
 294:	8b 81       	ldd	r24, Y+3	; 0x03
 296:	9c 81       	ldd	r25, Y+4	; 0x04
 298:	ad 81       	ldd	r26, Y+5	; 0x05
 29a:	be 81       	ldd	r27, Y+6	; 0x06
 29c:	9a 83       	std	Y+2, r25	; 0x02
 29e:	89 83       	std	Y+1, r24	; 0x01
 2a0:	05 c0       	rjmp	.+10     	; 0x2ac <verificarDato+0x66>
	}
	else{
		res = modoCaracter();
 2a2:	0e 94 fa 00 	call	0x1f4	; 0x1f4 <modoCaracter>
 2a6:	90 e0       	ldi	r25, 0x00	; 0
 2a8:	9a 83       	std	Y+2, r25	; 0x02
 2aa:	89 83       	std	Y+1, r24	; 0x01
	}
	
	return res;
 2ac:	89 81       	ldd	r24, Y+1	; 0x01
 2ae:	9a 81       	ldd	r25, Y+2	; 0x02
}
 2b0:	26 96       	adiw	r28, 0x06	; 6
 2b2:	0f b6       	in	r0, 0x3f	; 63
 2b4:	f8 94       	cli
 2b6:	de bf       	out	0x3e, r29	; 62
 2b8:	0f be       	out	0x3f, r0	; 63
 2ba:	cd bf       	out	0x3d, r28	; 61
 2bc:	df 91       	pop	r29
 2be:	cf 91       	pop	r28
 2c0:	08 95       	ret

000002c2 <imprimirMensaje>:
				}
			else
				return 0;
}

void imprimirMensaje(char * dato){
 2c2:	dc 01       	movw	r26, r24
	uint8_t i=0;
	while (dato[i] != '\0' ){
 2c4:	9c 91       	ld	r25, X
 2c6:	99 23       	and	r25, r25
 2c8:	91 f0       	breq	.+36     	; 0x2ee <imprimirMensaje+0x2c>
 2ca:	20 e0       	ldi	r18, 0x00	; 0
		bufferTx[posImp++] = dato[i];
 2cc:	e0 91 b0 01 	lds	r30, 0x01B0	; 0x8001b0 <__data_end>
 2d0:	31 e0       	ldi	r19, 0x01	; 1
 2d2:	3e 0f       	add	r19, r30
 2d4:	30 93 b0 01 	sts	0x01B0, r19	; 0x8001b0 <__data_end>
 2d8:	f0 e0       	ldi	r31, 0x00	; 0
 2da:	ec 54       	subi	r30, 0x4C	; 76
 2dc:	fe 4f       	sbci	r31, 0xFE	; 254
 2de:	90 83       	st	Z, r25
		i++;
 2e0:	2f 5f       	subi	r18, 0xFF	; 255
				return 0;
}

void imprimirMensaje(char * dato){
	uint8_t i=0;
	while (dato[i] != '\0' ){
 2e2:	fd 01       	movw	r30, r26
 2e4:	e2 0f       	add	r30, r18
 2e6:	f1 1d       	adc	r31, r1
 2e8:	90 81       	ld	r25, Z
 2ea:	91 11       	cpse	r25, r1
 2ec:	ef cf       	rjmp	.-34     	; 0x2cc <imprimirMensaje+0xa>
		bufferTx[posImp++] = dato[i];
		i++;
	}
	bufferTx[posImp++] = '\0';
 2ee:	e0 91 b0 01 	lds	r30, 0x01B0	; 0x8001b0 <__data_end>
 2f2:	81 e0       	ldi	r24, 0x01	; 1
 2f4:	8e 0f       	add	r24, r30
 2f6:	80 93 b0 01 	sts	0x01B0, r24	; 0x8001b0 <__data_end>
 2fa:	f0 e0       	ldi	r31, 0x00	; 0
 2fc:	ec 54       	subi	r30, 0x4C	; 76
 2fe:	fe 4f       	sbci	r31, 0xFE	; 254
 300:	10 82       	st	Z, r1
	SerialPort_TX_Interrupt_Enable();
 302:	0e 94 94 00 	call	0x128	; 0x128 <SerialPort_TX_Interrupt_Enable>
 306:	08 95       	ret

00000308 <__vector_18>:
}

// Rutina de Servicio de Interrupción de Byte Recibido
ISR(USART_RX_vect){
 308:	1f 92       	push	r1
 30a:	0f 92       	push	r0
 30c:	0f b6       	in	r0, 0x3f	; 63
 30e:	0f 92       	push	r0
 310:	11 24       	eor	r1, r1
 312:	2f 93       	push	r18
 314:	3f 93       	push	r19
 316:	4f 93       	push	r20
 318:	5f 93       	push	r21
 31a:	6f 93       	push	r22
 31c:	7f 93       	push	r23
 31e:	8f 93       	push	r24
 320:	9f 93       	push	r25
 322:	af 93       	push	r26
 324:	bf 93       	push	r27
 326:	ef 93       	push	r30
 328:	ff 93       	push	r31
	RX_Buffer = UDR0; //la lectura del UDR borra flag RXC
 32a:	80 91 c6 00 	lds	r24, 0x00C6	; 0x8000c6 <__TEXT_REGION_LENGTH__+0x7e00c6>
 32e:	80 93 b2 03 	sts	0x03B2, r24	; 0x8003b2 <RX_Buffer>
	if (RX_Buffer == '\r' ){
 332:	80 91 b2 03 	lds	r24, 0x03B2	; 0x8003b2 <RX_Buffer>
 336:	8d 30       	cpi	r24, 0x0D	; 13
 338:	71 f4       	brne	.+28     	; 0x356 <__vector_18+0x4e>
		buffer[posRx]= '\0';
 33a:	e0 91 b2 01 	lds	r30, 0x01B2	; 0x8001b2 <posRx>
 33e:	f0 e0       	ldi	r31, 0x00	; 0
 340:	ed 54       	subi	r30, 0x4D	; 77
 342:	fd 4f       	sbci	r31, 0xFD	; 253
 344:	10 82       	st	Z, r1
		posRx = 0;
 346:	10 92 b2 01 	sts	0x01B2, r1	; 0x8001b2 <posRx>
		finPalabra = 1;
 34a:	81 e0       	ldi	r24, 0x01	; 1
 34c:	80 93 b3 01 	sts	0x01B3, r24	; 0x8001b3 <finPalabra>
		SerialPort_RX_Interrupt_Disable();	
 350:	0e 94 ac 00 	call	0x158	; 0x158 <SerialPort_RX_Interrupt_Disable>
 354:	0c c0       	rjmp	.+24     	; 0x36e <__vector_18+0x66>
	}else{
		buffer[posRx++]= RX_Buffer;
 356:	e0 91 b2 01 	lds	r30, 0x01B2	; 0x8001b2 <posRx>
 35a:	81 e0       	ldi	r24, 0x01	; 1
 35c:	8e 0f       	add	r24, r30
 35e:	80 93 b2 01 	sts	0x01B2, r24	; 0x8001b2 <posRx>
 362:	f0 e0       	ldi	r31, 0x00	; 0
 364:	80 91 b2 03 	lds	r24, 0x03B2	; 0x8003b2 <RX_Buffer>
 368:	ed 54       	subi	r30, 0x4D	; 77
 36a:	fd 4f       	sbci	r31, 0xFD	; 253
 36c:	80 83       	st	Z, r24
	}
}
 36e:	ff 91       	pop	r31
 370:	ef 91       	pop	r30
 372:	bf 91       	pop	r27
 374:	af 91       	pop	r26
 376:	9f 91       	pop	r25
 378:	8f 91       	pop	r24
 37a:	7f 91       	pop	r23
 37c:	6f 91       	pop	r22
 37e:	5f 91       	pop	r21
 380:	4f 91       	pop	r20
 382:	3f 91       	pop	r19
 384:	2f 91       	pop	r18
 386:	0f 90       	pop	r0
 388:	0f be       	out	0x3f, r0	; 63
 38a:	0f 90       	pop	r0
 38c:	1f 90       	pop	r1
 38e:	18 95       	reti

00000390 <__vector_19>:

ISR (USART_UDRE_vect){				//interrupe cuando el buffer este libre.
 390:	1f 92       	push	r1
 392:	0f 92       	push	r0
 394:	0f b6       	in	r0, 0x3f	; 63
 396:	0f 92       	push	r0
 398:	11 24       	eor	r1, r1
 39a:	2f 93       	push	r18
 39c:	3f 93       	push	r19
 39e:	4f 93       	push	r20
 3a0:	5f 93       	push	r21
 3a2:	6f 93       	push	r22
 3a4:	7f 93       	push	r23
 3a6:	8f 93       	push	r24
 3a8:	9f 93       	push	r25
 3aa:	af 93       	push	r26
 3ac:	bf 93       	push	r27
 3ae:	ef 93       	push	r30
 3b0:	ff 93       	push	r31
	if (posTx < posImp ){
 3b2:	90 91 b1 01 	lds	r25, 0x01B1	; 0x8001b1 <posTx>
 3b6:	80 91 b0 01 	lds	r24, 0x01B0	; 0x8001b0 <__data_end>
 3ba:	98 17       	cp	r25, r24
 3bc:	68 f4       	brcc	.+26     	; 0x3d8 <__vector_19+0x48>
		SerialPort_Send_Data(bufferTx[posTx++]);
 3be:	e0 91 b1 01 	lds	r30, 0x01B1	; 0x8001b1 <posTx>
 3c2:	81 e0       	ldi	r24, 0x01	; 1
 3c4:	8e 0f       	add	r24, r30
 3c6:	80 93 b1 01 	sts	0x01B1, r24	; 0x8001b1 <posTx>
 3ca:	f0 e0       	ldi	r31, 0x00	; 0
 3cc:	ec 54       	subi	r30, 0x4C	; 76
 3ce:	fe 4f       	sbci	r31, 0xFE	; 254
 3d0:	80 81       	ld	r24, Z
 3d2:	0e 94 b2 00 	call	0x164	; 0x164 <SerialPort_Send_Data>
 3d6:	06 c0       	rjmp	.+12     	; 0x3e4 <__vector_19+0x54>
	}else{
		SerialPort_TX_Interrupt_Disable();
 3d8:	0e 94 9a 00 	call	0x134	; 0x134 <SerialPort_TX_Interrupt_Disable>
		posImp= 0;
 3dc:	10 92 b0 01 	sts	0x01B0, r1	; 0x8001b0 <__data_end>
		posTx= 0;
 3e0:	10 92 b1 01 	sts	0x01B1, r1	; 0x8001b1 <posTx>
	}
 3e4:	ff 91       	pop	r31
 3e6:	ef 91       	pop	r30
 3e8:	bf 91       	pop	r27
 3ea:	af 91       	pop	r26
 3ec:	9f 91       	pop	r25
 3ee:	8f 91       	pop	r24
 3f0:	7f 91       	pop	r23
 3f2:	6f 91       	pop	r22
 3f4:	5f 91       	pop	r21
 3f6:	4f 91       	pop	r20
 3f8:	3f 91       	pop	r19
 3fa:	2f 91       	pop	r18
 3fc:	0f 90       	pop	r0
 3fe:	0f be       	out	0x3f, r0	; 63
 400:	0f 90       	pop	r0
 402:	1f 90       	pop	r1
 404:	18 95       	reti

00000406 <__udivmodsi4>:
 406:	a1 e2       	ldi	r26, 0x21	; 33
 408:	1a 2e       	mov	r1, r26
 40a:	aa 1b       	sub	r26, r26
 40c:	bb 1b       	sub	r27, r27
 40e:	fd 01       	movw	r30, r26
 410:	0d c0       	rjmp	.+26     	; 0x42c <__udivmodsi4_ep>

00000412 <__udivmodsi4_loop>:
 412:	aa 1f       	adc	r26, r26
 414:	bb 1f       	adc	r27, r27
 416:	ee 1f       	adc	r30, r30
 418:	ff 1f       	adc	r31, r31
 41a:	a2 17       	cp	r26, r18
 41c:	b3 07       	cpc	r27, r19
 41e:	e4 07       	cpc	r30, r20
 420:	f5 07       	cpc	r31, r21
 422:	20 f0       	brcs	.+8      	; 0x42c <__udivmodsi4_ep>
 424:	a2 1b       	sub	r26, r18
 426:	b3 0b       	sbc	r27, r19
 428:	e4 0b       	sbc	r30, r20
 42a:	f5 0b       	sbc	r31, r21

0000042c <__udivmodsi4_ep>:
 42c:	66 1f       	adc	r22, r22
 42e:	77 1f       	adc	r23, r23
 430:	88 1f       	adc	r24, r24
 432:	99 1f       	adc	r25, r25
 434:	1a 94       	dec	r1
 436:	69 f7       	brne	.-38     	; 0x412 <__udivmodsi4_loop>
 438:	60 95       	com	r22
 43a:	70 95       	com	r23
 43c:	80 95       	com	r24
 43e:	90 95       	com	r25
 440:	9b 01       	movw	r18, r22
 442:	ac 01       	movw	r20, r24
 444:	bd 01       	movw	r22, r26
 446:	cf 01       	movw	r24, r30
 448:	08 95       	ret

0000044a <atoi>:
 44a:	fc 01       	movw	r30, r24
 44c:	88 27       	eor	r24, r24
 44e:	99 27       	eor	r25, r25
 450:	e8 94       	clt
 452:	21 91       	ld	r18, Z+
 454:	20 32       	cpi	r18, 0x20	; 32
 456:	e9 f3       	breq	.-6      	; 0x452 <atoi+0x8>
 458:	29 30       	cpi	r18, 0x09	; 9
 45a:	10 f0       	brcs	.+4      	; 0x460 <atoi+0x16>
 45c:	2e 30       	cpi	r18, 0x0E	; 14
 45e:	c8 f3       	brcs	.-14     	; 0x452 <atoi+0x8>
 460:	2b 32       	cpi	r18, 0x2B	; 43
 462:	41 f0       	breq	.+16     	; 0x474 <atoi+0x2a>
 464:	2d 32       	cpi	r18, 0x2D	; 45
 466:	39 f4       	brne	.+14     	; 0x476 <atoi+0x2c>
 468:	68 94       	set
 46a:	04 c0       	rjmp	.+8      	; 0x474 <atoi+0x2a>
 46c:	0e 94 4c 02 	call	0x498	; 0x498 <__mulhi_const_10>
 470:	82 0f       	add	r24, r18
 472:	91 1d       	adc	r25, r1
 474:	21 91       	ld	r18, Z+
 476:	20 53       	subi	r18, 0x30	; 48
 478:	2a 30       	cpi	r18, 0x0A	; 10
 47a:	c0 f3       	brcs	.-16     	; 0x46c <atoi+0x22>
 47c:	1e f4       	brtc	.+6      	; 0x484 <atoi+0x3a>
 47e:	90 95       	com	r25
 480:	81 95       	neg	r24
 482:	9f 4f       	sbci	r25, 0xFF	; 255
 484:	08 95       	ret

00000486 <strcmp>:
 486:	fb 01       	movw	r30, r22
 488:	dc 01       	movw	r26, r24
 48a:	8d 91       	ld	r24, X+
 48c:	01 90       	ld	r0, Z+
 48e:	80 19       	sub	r24, r0
 490:	01 10       	cpse	r0, r1
 492:	d9 f3       	breq	.-10     	; 0x48a <strcmp+0x4>
 494:	99 0b       	sbc	r25, r25
 496:	08 95       	ret

00000498 <__mulhi_const_10>:
 498:	7a e0       	ldi	r23, 0x0A	; 10
 49a:	97 9f       	mul	r25, r23
 49c:	90 2d       	mov	r25, r0
 49e:	87 9f       	mul	r24, r23
 4a0:	80 2d       	mov	r24, r0
 4a2:	91 0d       	add	r25, r1
 4a4:	11 24       	eor	r1, r1
 4a6:	08 95       	ret

000004a8 <_exit>:
 4a8:	f8 94       	cli

000004aa <__stop_program>:
 4aa:	ff cf       	rjmp	.-2      	; 0x4aa <__stop_program>
